:03216100750800FE
:20216700C009858109E582FF24F850028032AE088FF005F07401800225E0D5F0FBFFE50927
:2021870024FDF8E66005EF42068005EFF4FF5206C006C0069000071221BD1581D0068E08C9
:1621A700D00922AF82C007C0079000071221BD1581D0078F0822BB
:2021BD00C009858109AD84758408E50924FDF8E6F08D84D00922AD84758408E0FE8D848E60
:0221DD0082225C
:2021DF0085828D438920438840759850C2AC22A298E433F58222858299C2993099FD22108B
:2021FF00980280FB85998222AD82AE83AFF08D828E838FF0122295FC60180DBD00010E8CA9
:13221F0082C007C006C0051221F5D005D006D00780DC22B0
:03210000022108B1
:0321640002210352
:0521030012223280FEF3
:202232007582FD1221DF9022B575F0801222079022DC75F0801222071221EEE58260F9125E
:2022520021FEAF828F06BE3102800ABE32028010BE3323801690230375F08012220780D8B2
:1D22720090230E75F08012220780CD90231975F08012220780C28F821221F580BB7F
:2022B50092A5E1E220A4E0A0A9A2A5E0A02053494F20A4ABEF20E1E2A5ADA4A02053444B77
:2022D5002D312E310D0A008DA0A6A8ACA0A9E2A520AAADAEAAA820A4ABEF20E2A5E1E2A837
:2022F500E0AEA2A0ADA8EF2E2E2E200D0A000D0A7465737420310D0A000D0A7465737420BE
:0F231500320D0A000D0A7465737420330D0A002F
:06228F009000020221D3C1
:06213700E478FFF6D8FD7C
:202115007900E94400601B7A00902324780075A060E493F2A308B8000205A0D9F4DAF275CA
:02213500A0FF09
:20213D007800E84400600A790075A060E4F309D8FC7800E84400600C7900906000E4F0A3E2
:04215D00D8FCD9FAD7
:0D2108007581091222B1E5826003022103F6
:1C22950020F71430F6148883A88220F507E6A88375830022E280F7E49322E02258
:0422B1007582002210
:00000001FF
